{
  "_format": "hh-sol-artifact-1",
  "contractName": "ZolVault",
  "sourceName": "contracts/ZolVault.sol",
  "abi": [
    {
      "inputs": [
        {
          "internalType": "address",
          "name": "_token",
          "type": "address"
        },
        {
          "internalType": "address",
          "name": "_agent",
          "type": "address"
        }
      ],
      "stateMutability": "nonpayable",
      "type": "constructor"
    },
    {
      "anonymous": false,
      "inputs": [
        {
          "indexed": false,
          "internalType": "uint256",
          "name": "gross",
          "type": "uint256"
        },
        {
          "indexed": false,
          "internalType": "uint256",
          "name": "devFee",
          "type": "uint256"
        },
        {
          "indexed": false,
          "internalType": "uint256",
          "name": "netToUsers",
          "type": "uint256"
        }
      ],
      "name": "Compounded",
      "type": "event"
    },
    {
      "anonymous": false,
      "inputs": [
        {
          "indexed": true,
          "internalType": "address",
          "name": "user",
          "type": "address"
        },
        {
          "indexed": false,
          "internalType": "uint256",
          "name": "amount",
          "type": "uint256"
        },
        {
          "indexed": false,
          "internalType": "enum ZolVault.Risk",
          "name": "risk",
          "type": "uint8"
        }
      ],
      "name": "Deposited",
      "type": "event"
    },
    {
      "anonymous": false,
      "inputs": [
        {
          "indexed": false,
          "internalType": "enum ZolVault.Risk",
          "name": "risk",
          "type": "uint8"
        },
        {
          "indexed": false,
          "internalType": "address",
          "name": "newPool",
          "type": "address"
        }
      ],
      "name": "Rotated",
      "type": "event"
    },
    {
      "anonymous": false,
      "inputs": [
        {
          "indexed": true,
          "internalType": "address",
          "name": "user",
          "type": "address"
        },
        {
          "indexed": false,
          "internalType": "uint256",
          "name": "principal",
          "type": "uint256"
        },
        {
          "indexed": false,
          "internalType": "uint256",
          "name": "yieldNet",
          "type": "uint256"
        }
      ],
      "name": "Withdrawn",
      "type": "event"
    },
    {
      "inputs": [],
      "name": "BPS",
      "outputs": [
        {
          "internalType": "uint256",
          "name": "",
          "type": "uint256"
        }
      ],
      "stateMutability": "view",
      "type": "function"
    },
    {
      "inputs": [],
      "name": "DEV_FEE",
      "outputs": [
        {
          "internalType": "uint256",
          "name": "",
          "type": "uint256"
        }
      ],
      "stateMutability": "view",
      "type": "function"
    },
    {
      "inputs": [],
      "name": "MIN_DEP",
      "outputs": [
        {
          "internalType": "uint256",
          "name": "",
          "type": "uint256"
        }
      ],
      "stateMutability": "view",
      "type": "function"
    },
    {
      "inputs": [
        {
          "internalType": "enum ZolVault.Risk",
          "name": "",
          "type": "uint8"
        }
      ],
      "name": "activePool",
      "outputs": [
        {
          "internalType": "address",
          "name": "",
          "type": "address"
        }
      ],
      "stateMutability": "view",
      "type": "function"
    },
    {
      "inputs": [
        {
          "internalType": "address",
          "name": "p",
          "type": "address"
        }
      ],
      "name": "addPool",
      "outputs": [],
      "stateMutability": "nonpayable",
      "type": "function"
    },
    {
      "inputs": [],
      "name": "agent",
      "outputs": [
        {
          "internalType": "address",
          "name": "",
          "type": "address"
        }
      ],
      "stateMutability": "view",
      "type": "function"
    },
    {
      "inputs": [
        {
          "internalType": "uint256",
          "name": "",
          "type": "uint256"
        }
      ],
      "name": "allUsers",
      "outputs": [
        {
          "internalType": "address",
          "name": "",
          "type": "address"
        }
      ],
      "stateMutability": "view",
      "type": "function"
    },
    {
      "inputs": [
        {
          "internalType": "uint256",
          "name": "",
          "type": "uint256"
        }
      ],
      "name": "approvedPools",
      "outputs": [
        {
          "internalType": "address",
          "name": "",
          "type": "address"
        }
      ],
      "stateMutability": "view",
      "type": "function"
    },
    {
      "inputs": [],
      "name": "claimYield",
      "outputs": [],
      "stateMutability": "nonpayable",
      "type": "function"
    },
    {
      "inputs": [],
      "name": "compound",
      "outputs": [],
      "stateMutability": "nonpayable",
      "type": "function"
    },
    {
      "inputs": [
        {
          "internalType": "uint256",
          "name": "amount",
          "type": "uint256"
        },
        {
          "internalType": "enum ZolVault.Risk",
          "name": "risk",
          "type": "uint8"
        }
      ],
      "name": "deposit",
      "outputs": [],
      "stateMutability": "nonpayable",
      "type": "function"
    },
    {
      "inputs": [],
      "name": "devFeesEarned",
      "outputs": [
        {
          "internalType": "uint256",
          "name": "",
          "type": "uint256"
        }
      ],
      "stateMutability": "view",
      "type": "function"
    },
    {
      "inputs": [],
      "name": "developer",
      "outputs": [
        {
          "internalType": "address",
          "name": "",
          "type": "address"
        }
      ],
      "stateMutability": "view",
      "type": "function"
    },
    {
      "inputs": [],
      "name": "emergencyExit",
      "outputs": [],
      "stateMutability": "nonpayable",
      "type": "function"
    },
    {
      "inputs": [],
      "name": "getPools",
      "outputs": [
        {
          "internalType": "address[]",
          "name": "",
          "type": "address[]"
        }
      ],
      "stateMutability": "view",
      "type": "function"
    },
    {
      "inputs": [],
      "name": "getTVL",
      "outputs": [
        {
          "internalType": "uint256",
          "name": "",
          "type": "uint256"
        }
      ],
      "stateMutability": "view",
      "type": "function"
    },
    {
      "inputs": [
        {
          "internalType": "address",
          "name": "u",
          "type": "address"
        }
      ],
      "name": "getUser",
      "outputs": [
        {
          "internalType": "uint256",
          "name": "principal",
          "type": "uint256"
        },
        {
          "internalType": "uint256",
          "name": "yieldNet",
          "type": "uint256"
        },
        {
          "internalType": "uint256",
          "name": "yieldClaimed",
          "type": "uint256"
        },
        {
          "internalType": "uint8",
          "name": "risk",
          "type": "uint8"
        },
        {
          "internalType": "uint256",
          "name": "depositedAt",
          "type": "uint256"
        },
        {
          "internalType": "bool",
          "name": "active",
          "type": "bool"
        }
      ],
      "stateMutability": "view",
      "type": "function"
    },
    {
      "inputs": [],
      "name": "getUsers",
      "outputs": [
        {
          "internalType": "uint256",
          "name": "",
          "type": "uint256"
        }
      ],
      "stateMutability": "view",
      "type": "function"
    },
    {
      "inputs": [],
      "name": "paused",
      "outputs": [
        {
          "internalType": "bool",
          "name": "",
          "type": "bool"
        }
      ],
      "stateMutability": "view",
      "type": "function"
    },
    {
      "inputs": [
        {
          "internalType": "enum ZolVault.Risk",
          "name": "risk",
          "type": "uint8"
        },
        {
          "internalType": "address",
          "name": "newPool",
          "type": "address"
        }
      ],
      "name": "rotateStrategy",
      "outputs": [],
      "stateMutability": "nonpayable",
      "type": "function"
    },
    {
      "inputs": [
        {
          "internalType": "address",
          "name": "a",
          "type": "address"
        }
      ],
      "name": "setAgent",
      "outputs": [],
      "stateMutability": "nonpayable",
      "type": "function"
    },
    {
      "inputs": [
        {
          "internalType": "bool",
          "name": "p",
          "type": "bool"
        }
      ],
      "name": "setPaused",
      "outputs": [],
      "stateMutability": "nonpayable",
      "type": "function"
    },
    {
      "inputs": [],
      "name": "token",
      "outputs": [
        {
          "internalType": "address",
          "name": "",
          "type": "address"
        }
      ],
      "stateMutability": "view",
      "type": "function"
    },
    {
      "inputs": [],
      "name": "totalCompounds",
      "outputs": [
        {
          "internalType": "uint256",
          "name": "",
          "type": "uint256"
        }
      ],
      "stateMutability": "view",
      "type": "function"
    },
    {
      "inputs": [],
      "name": "totalPrincipal",
      "outputs": [
        {
          "internalType": "uint256",
          "name": "",
          "type": "uint256"
        }
      ],
      "stateMutability": "view",
      "type": "function"
    },
    {
      "inputs": [],
      "name": "totalShares",
      "outputs": [
        {
          "internalType": "uint256",
          "name": "",
          "type": "uint256"
        }
      ],
      "stateMutability": "view",
      "type": "function"
    },
    {
      "inputs": [
        {
          "internalType": "address",
          "name": "",
          "type": "address"
        }
      ],
      "name": "users",
      "outputs": [
        {
          "internalType": "uint256",
          "name": "principal",
          "type": "uint256"
        },
        {
          "internalType": "uint256",
          "name": "shares",
          "type": "uint256"
        },
        {
          "internalType": "uint256",
          "name": "yieldNet",
          "type": "uint256"
        },
        {
          "internalType": "uint256",
          "name": "yieldClaimed",
          "type": "uint256"
        },
        {
          "internalType": "enum ZolVault.Risk",
          "name": "risk",
          "type": "uint8"
        },
        {
          "internalType": "uint256",
          "name": "depositedAt",
          "type": "uint256"
        },
        {
          "internalType": "bool",
          "name": "active",
          "type": "bool"
        }
      ],
      "stateMutability": "view",
      "type": "function"
    },
    {
      "inputs": [],
      "name": "withdraw",
      "outputs": [],
      "stateMutability": "nonpayable",
      "type": "function"
    }
  ],
  "bytecode": "0x60a06040523480156200001157600080fd5b50604051620030043803806200300483398181016040528101906200003791906200015e565b3373ffffffffffffffffffffffffffffffffffffffff1660808173ffffffffffffffffffffffffffffffffffffffff168152505081600160006101000a81548173ffffffffffffffffffffffffffffffffffffffff021916908373ffffffffffffffffffffffffffffffffffffffff160217905550806000806101000a81548173ffffffffffffffffffffffffffffffffffffffff021916908373ffffffffffffffffffffffffffffffffffffffff1602179055505050620001a5565b600080fd5b600073ffffffffffffffffffffffffffffffffffffffff82169050919050565b60006200012682620000f9565b9050919050565b620001388162000119565b81146200014457600080fd5b50565b60008151905062000158816200012d565b92915050565b60008060408385031215620001785762000177620000f4565b5b6000620001888582860162000147565b92505060206200019b8582860162000147565b9150509250929050565b608051612e19620001eb6000396000818161052a015281816114ca01528181611a6601528181611b6a01528181611b8e01528181611d0e0152611fa70152612e196000f3fe608060405234801561001057600080fd5b50600436106101c35760003560e01c80636f77926b116100f9578063bcf685ed11610097578063d914cd4b11610071578063d914cd4b146104b9578063f5ff5c76146104d5578063f69e2046146104f3578063fc0c546a146104fd576101c3565b8063bcf685ed1461044f578063c92e82221461046b578063ca4b208b1461049b576101c3565b806397b3fcaa116100d357806397b3fcaa146103af5780639c590d64146103cd578063a2bdedf4146103e9578063a87430ba14610419576101c3565b80636f77926b1461033e57806378ffab16146103735780637a9506ed14610391576101c3565b8063436a88c1116101665780635c975abb116101405780635c975abb146102b6578063654cfdff146102d4578063673a2a1f146102f057806367e93f921461030e576101c3565b8063436a88c1146102705780634b1533b21461028e5780635641ec03146102ac576101c3565b806336ee1884116101a257806336ee1884146102205780633a98ef391461023e5780633ccfd60b1461025c578063406cf22914610266576101c3565b8062ce8e3e146101c857806316c38b3c146101e6578063249d39e914610202575b600080fd5b6101d061051b565b6040516101dd919061225a565b60405180910390f35b61020060048036038101906101fb91906122b2565b610528565b005b61020a6105d3565b604051610217919061225a565b60405180910390f35b6102286105d9565b604051610235919061225a565b60405180910390f35b6102466105df565b604051610253919061225a565b60405180910390f35b6102646105e5565b005b61026e610923565b005b610278610a80565b604051610285919061225a565b60405180910390f35b610296610a85565b6040516102a3919061225a565b60405180910390f35b6102b4610a8b565b005b6102be610d6c565b6040516102cb91906122ee565b60405180910390f35b6102ee60048036038101906102e9919061235a565b610d7f565b005b6102f86112df565b604051610305919061248a565b60405180910390f35b610328600480360381019061032391906124ac565b61136d565b60405161033591906124e8565b60405180910390f35b6103586004803603810190610353919061252f565b6113ac565b60405161036a96959493929190612578565b60405180910390f35b61037b611458565b604051610388919061225a565b60405180910390f35b61039961145e565b6040516103a6919061225a565b60405180910390f35b6103b7611469565b6040516103c4919061225a565b60405180910390f35b6103e760048036038101906103e291906125d9565b611473565b005b61040360048036038101906103fe91906124ac565b6119c9565b60405161041091906124e8565b60405180910390f35b610433600480360381019061042e919061252f565b611a08565b6040516104469796959493929190612690565b60405180910390f35b6104696004803603810190610464919061252f565b611a64565b005b610485600480360381019061048091906126ff565b611b35565b60405161049291906124e8565b60405180910390f35b6104a3611b68565b6040516104b091906124e8565b60405180910390f35b6104d360048036038101906104ce919061252f565b611b8c565b005b6104dd611c93565b6040516104ea91906124e8565b60405180910390f35b6104fb611cb7565b005b610505612171565b60405161051291906124e8565b60405180910390f35b6000600780549050905090565b7f000000000000000000000000000000000000000000000000000000000000000073ffffffffffffffffffffffffffffffffffffffff163373ffffffffffffffffffffffffffffffffffffffff16146105b6576040517f08c379a00000000000000000000000000000000000000000000000000000000081526004016105ad90612789565b60405180910390fd5b80600160146101000a81548160ff02191690831515021790555050565b61271081565b60045481565b60035481565b6000600660003373ffffffffffffffffffffffffffffffffffffffff1673ffffffffffffffffffffffffffffffffffffffff16815260200190815260200160002090508060060160009054906101000a900460ff16801561064a575060008160000154115b610689576040517f08c379a0000000000000000000000000000000000000000000000000000000008152600401610680906127f5565b60405180910390fd5b60008160000154905060008260020154905081600260008282546106ad9190612844565b925050819055508260010154600360008282546106ca9190612844565b925050819055506000836000018190555060008360010181905550600083600201819055506000600860008560040160009054906101000a900460ff16600281111561071957610718612619565b5b600281111561072b5761072a612619565b5b815260200190815260200160002060009054906101000a900473ffffffffffffffffffffffffffffffffffffffff169050600073ffffffffffffffffffffffffffffffffffffffff168173ffffffffffffffffffffffffffffffffffffffff16146107fc578073ffffffffffffffffffffffffffffffffffffffff16632e1a7d4d846040518263ffffffff1660e01b81526004016107c9919061225a565b600060405180830381600087803b1580156107e357600080fd5b505af11580156107f7573d6000803e3d6000fd5b505050505b600160009054906101000a900473ffffffffffffffffffffffffffffffffffffffff1673ffffffffffffffffffffffffffffffffffffffff1663a9059cbb3384866108479190612878565b6040518363ffffffff1660e01b81526004016108649291906128ac565b6020604051808303816000875af1158015610883573d6000803e3d6000fd5b505050506040513d601f19601f820116820180604052508101906108a791906128ea565b5060008211156108cd57818460030160008282546108c59190612878565b925050819055505b3373ffffffffffffffffffffffffffffffffffffffff167f92ccf450a286a957af52509bc1c9939d1a6a481783e142e41e2499f0bb66ebc68484604051610915929190612917565b60405180910390a250505050565b6000600660003373ffffffffffffffffffffffffffffffffffffffff1673ffffffffffffffffffffffffffffffffffffffff168152602001908152602001600020905060008160020154116109ad576040517f08c379a00000000000000000000000000000000000000000000000000000000081526004016109a49061298c565b60405180910390fd5b60008160020154905060008260020181905550808260030160008282546109d49190612878565b92505081905550600160009054906101000a900473ffffffffffffffffffffffffffffffffffffffff1673ffffffffffffffffffffffffffffffffffffffff1663a9059cbb33836040518363ffffffff1660e01b8152600401610a389291906128ac565b6020604051808303816000875af1158015610a57573d6000803e3d6000fd5b505050506040513d601f19601f82011682018060405250810190610a7b91906128ea565b505050565b60c881565b60025481565b6000600660003373ffffffffffffffffffffffffffffffffffffffff1673ffffffffffffffffffffffffffffffffffffffff16815260200190815260200160002090508060060160009054906101000a900460ff16610b1f576040517f08c379a0000000000000000000000000000000000000000000000000000000008152600401610b16906127f5565b60405180910390fd5b6000816000015490506000826002015490506000821115610b71578160026000828254610b4c9190612844565b92505081905550826001015460036000828254610b699190612844565b925050819055505b6000836000018190555060008360010181905550600083600201819055506000600860008560040160009054906101000a900460ff166002811115610bb957610bb8612619565b5b6002811115610bcb57610bca612619565b5b815260200190815260200160002060009054906101000a900473ffffffffffffffffffffffffffffffffffffffff169050600073ffffffffffffffffffffffffffffffffffffffff168173ffffffffffffffffffffffffffffffffffffffff1614158015610c395750600083115b15610caa578073ffffffffffffffffffffffffffffffffffffffff16632e1a7d4d846040518263ffffffff1660e01b8152600401610c77919061225a565b600060405180830381600087803b158015610c9157600080fd5b505af1158015610ca5573d6000803e3d6000fd5b505050505b60008284610cb89190612878565b90506000811115610d6557600160009054906101000a900473ffffffffffffffffffffffffffffffffffffffff1673ffffffffffffffffffffffffffffffffffffffff1663a9059cbb33836040518363ffffffff1660e01b8152600401610d209291906128ac565b6020604051808303816000875af1158015610d3f573d6000803e3d6000fd5b505050506040513d601f19601f82011682018060405250810190610d6391906128ea565b505b5050505050565b600160149054906101000a900460ff1681565b600160149054906101000a900460ff1615610dcf576040517f08c379a0000000000000000000000000000000000000000000000000000000008152600401610dc6906129f8565b60405180910390fd5b66038d7ea4c68000821015610e19576040517f08c379a0000000000000000000000000000000000000000000000000000000008152600401610e1090612a64565b60405180910390fd5b600160009054906101000a900473ffffffffffffffffffffffffffffffffffffffff1673ffffffffffffffffffffffffffffffffffffffff166323b872dd3330856040518463ffffffff1660e01b8152600401610e7893929190612a84565b6020604051808303816000875af1158015610e97573d6000803e3d6000fd5b505050506040513d601f19601f82011682018060405250810190610ebb91906128ea565b506000806003541480610ed057506000600254145b610ef45760025460035484610ee59190612abb565b610eef9190612b2c565b610ef6565b825b9050600660003373ffffffffffffffffffffffffffffffffffffffff1673ffffffffffffffffffffffffffffffffffffffff16815260200190815260200160002060060160009054906101000a900460ff1661100b576007339080600181540180825580915050600190039060005260206000200160009091909190916101000a81548173ffffffffffffffffffffffffffffffffffffffff021916908373ffffffffffffffffffffffffffffffffffffffff1602179055506001600660003373ffffffffffffffffffffffffffffffffffffffff1673ffffffffffffffffffffffffffffffffffffffff16815260200190815260200160002060060160006101000a81548160ff0219169083151502179055505b6000600660003373ffffffffffffffffffffffffffffffffffffffff1673ffffffffffffffffffffffffffffffffffffffff1681526020019081526020016000209050838160000160008282546110629190612878565b925050819055508181600101600082825461107d9190612878565b92505081905550828160040160006101000a81548160ff021916908360028111156110ab576110aa612619565b5b021790555042816005018190555083600260008282546110cb9190612878565b9250508190555081600360008282546110e49190612878565b9250508190555060006008600085600281111561110457611103612619565b5b600281111561111657611115612619565b5b815260200190815260200160002060009054906101000a900473ffffffffffffffffffffffffffffffffffffffff169050600073ffffffffffffffffffffffffffffffffffffffff168173ffffffffffffffffffffffffffffffffffffffff161461128857600160009054906101000a900473ffffffffffffffffffffffffffffffffffffffff1673ffffffffffffffffffffffffffffffffffffffff1663095ea7b382876040518363ffffffff1660e01b81526004016111d89291906128ac565b6020604051808303816000875af11580156111f7573d6000803e3d6000fd5b505050506040513d601f19601f8201168201806040525081019061121b91906128ea565b508073ffffffffffffffffffffffffffffffffffffffff1663b6b55f25866040518263ffffffff1660e01b8152600401611255919061225a565b600060405180830381600087803b15801561126f57600080fd5b505af1158015611283573d6000803e3d6000fd5b505050505b3373ffffffffffffffffffffffffffffffffffffffff167f68ef9715adf17aacc9d4ab13dbff6ecd13ea4916b4a6c98416a0c2789e1b9d5286866040516112d0929190612b5d565b60405180910390a25050505050565b6060600980548060200260200160405190810160405280929190818152602001828054801561136357602002820191906000526020600020905b8160009054906101000a900473ffffffffffffffffffffffffffffffffffffffff1673ffffffffffffffffffffffffffffffffffffffff1681526020019060010190808311611319575b5050505050905090565b6009818154811061137d57600080fd5b906000526020600020016000915054906101000a900473ffffffffffffffffffffffffffffffffffffffff1681565b6000806000806000806000600660008973ffffffffffffffffffffffffffffffffffffffff1673ffffffffffffffffffffffffffffffffffffffff16815260200190815260200160002090508060000154816002015482600301548360040160009054906101000a900460ff16600281111561142b5761142a612619565b5b84600501548560060160009054906101000a900460ff169650965096509650965096505091939550919395565b60055481565b66038d7ea4c6800081565b6000600254905090565b60008054906101000a900473ffffffffffffffffffffffffffffffffffffffff1673ffffffffffffffffffffffffffffffffffffffff163373ffffffffffffffffffffffffffffffffffffffff16148061151857507f000000000000000000000000000000000000000000000000000000000000000073ffffffffffffffffffffffffffffffffffffffff163373ffffffffffffffffffffffffffffffffffffffff16145b611557576040517f08c379a000000000000000000000000000000000000000000000000000000000815260040161154e90612bd2565b60405180910390fd5b61156081612197565b61159f576040517f08c379a000000000000000000000000000000000000000000000000000000000815260040161159690612c3e565b60405180910390fd5b6000600860008460028111156115b8576115b7612619565b5b60028111156115ca576115c9612619565b5b815260200190815260200160002060009054906101000a900473ffffffffffffffffffffffffffffffffffffffff1690508173ffffffffffffffffffffffffffffffffffffffff168173ffffffffffffffffffffffffffffffffffffffff160361163457506119c5565b600073ffffffffffffffffffffffffffffffffffffffff168173ffffffffffffffffffffffffffffffffffffffff161461175d5760008173ffffffffffffffffffffffffffffffffffffffff166370a08231306040518263ffffffff1660e01b81526004016116a391906124e8565b602060405180830381865afa1580156116c0573d6000803e3d6000fd5b505050506040513d601f19601f820116820180604052508101906116e49190612c73565b9050600081111561175b578173ffffffffffffffffffffffffffffffffffffffff16632e1a7d4d826040518263ffffffff1660e01b8152600401611728919061225a565b600060405180830381600087803b15801561174257600080fd5b505af1158015611756573d6000803e3d6000fd5b505050505b505b6000600160009054906101000a900473ffffffffffffffffffffffffffffffffffffffff1673ffffffffffffffffffffffffffffffffffffffff166370a08231306040518263ffffffff1660e01b81526004016117ba91906124e8565b602060405180830381865afa1580156117d7573d6000803e3d6000fd5b505050506040513d601f19601f820116820180604052508101906117fb9190612c73565b9050600081111561191357600160009054906101000a900473ffffffffffffffffffffffffffffffffffffffff1673ffffffffffffffffffffffffffffffffffffffff1663095ea7b384836040518363ffffffff1660e01b81526004016118639291906128ac565b6020604051808303816000875af1158015611882573d6000803e3d6000fd5b505050506040513d601f19601f820116820180604052508101906118a691906128ea565b508273ffffffffffffffffffffffffffffffffffffffff1663b6b55f25826040518263ffffffff1660e01b81526004016118e0919061225a565b600060405180830381600087803b1580156118fa57600080fd5b505af115801561190e573d6000803e3d6000fd5b505050505b826008600086600281111561192b5761192a612619565b5b600281111561193d5761193c612619565b5b815260200190815260200160002060006101000a81548173ffffffffffffffffffffffffffffffffffffffff021916908373ffffffffffffffffffffffffffffffffffffffff1602179055507f1aedb1595d0adcd6e3472bde50f616d3c2827305d61fb12e6d34ed7053d77c7184846040516119ba929190612ca0565b60405180910390a150505b5050565b600781815481106119d957600080fd5b906000526020600020016000915054906101000a900473ffffffffffffffffffffffffffffffffffffffff1681565b60066020528060005260406000206000915090508060000154908060010154908060020154908060030154908060040160009054906101000a900460ff16908060050154908060060160009054906101000a900460ff16905087565b7f000000000000000000000000000000000000000000000000000000000000000073ffffffffffffffffffffffffffffffffffffffff163373ffffffffffffffffffffffffffffffffffffffff1614611af2576040517f08c379a0000000000000000000000000000000000000000000000000000000008152600401611ae990612789565b60405180910390fd5b806000806101000a81548173ffffffffffffffffffffffffffffffffffffffff021916908373ffffffffffffffffffffffffffffffffffffffff16021790555050565b60086020528060005260406000206000915054906101000a900473ffffffffffffffffffffffffffffffffffffffff1681565b7f000000000000000000000000000000000000000000000000000000000000000081565b7f000000000000000000000000000000000000000000000000000000000000000073ffffffffffffffffffffffffffffffffffffffff163373ffffffffffffffffffffffffffffffffffffffff1614611c1a576040517f08c379a0000000000000000000000000000000000000000000000000000000008152600401611c1190612789565b60405180910390fd5b611c2381612197565b15611c2d57600080fd5b6009819080600181540180825580915050600190039060005260206000200160009091909190916101000a81548173ffffffffffffffffffffffffffffffffffffffff021916908373ffffffffffffffffffffffffffffffffffffffff16021790555050565b60008054906101000a900473ffffffffffffffffffffffffffffffffffffffff1681565b60008054906101000a900473ffffffffffffffffffffffffffffffffffffffff1673ffffffffffffffffffffffffffffffffffffffff163373ffffffffffffffffffffffffffffffffffffffff161480611d5c57507f000000000000000000000000000000000000000000000000000000000000000073ffffffffffffffffffffffffffffffffffffffff163373ffffffffffffffffffffffffffffffffffffffff16145b611d9b576040517f08c379a0000000000000000000000000000000000000000000000000000000008152600401611d9290612bd2565b60405180910390fd5b600160149054906101000a900460ff1615611deb576040517f08c379a0000000000000000000000000000000000000000000000000000000008152600401611de2906129f8565b60405180910390fd5b600060025411611e30576040517f08c379a0000000000000000000000000000000000000000000000000000000008152600401611e2790612d15565b60405180910390fd5b6000805b600980549050811015611f115760098181548110611e5557611e54612d35565b5b9060005260206000200160009054906101000a900473ffffffffffffffffffffffffffffffffffffffff1673ffffffffffffffffffffffffffffffffffffffff16634641257d6040518163ffffffff1660e01b81526004016020604051808303816000875af1925050508015611ee957506040513d601f19601f82011682018060405250810190611ee69190612c73565b60015b15611efe578083611efa9190612878565b9250505b8080611f0990612d64565b915050611e34565b5060008103611f20575061216f565b600061271060c883611f329190612abb565b611f3c9190612b2c565b905060008183611f4c9190612844565b90508160056000828254611f609190612878565b92505081905550600160009054906101000a900473ffffffffffffffffffffffffffffffffffffffff1673ffffffffffffffffffffffffffffffffffffffff1663a9059cbb7f0000000000000000000000000000000000000000000000000000000000000000846040518363ffffffff1660e01b8152600401611fe49291906128ac565b6020604051808303816000875af1158015612003573d6000803e3d6000fd5b505050506040513d601f19601f8201168201806040525081019061202791906128ea565b5060005b600780549050811015612117576000600660006007848154811061205257612051612d35565b5b9060005260206000200160009054906101000a900473ffffffffffffffffffffffffffffffffffffffff1673ffffffffffffffffffffffffffffffffffffffff1673ffffffffffffffffffffffffffffffffffffffff168152602001908152602001600020905060008160010154036120cb5750612104565b6003548160010154846120de9190612abb565b6120e89190612b2c565b8160020160008282546120fb9190612878565b92505081905550505b808061210f90612d64565b91505061202b565b506004600081548092919061212b90612d64565b91905055507fb969f0ab9501336670614935773c380be93ea2f2b43a9f7e94f036c299b79afc83838360405161216393929190612dac565b60405180910390a15050505b565b600160009054906101000a900473ffffffffffffffffffffffffffffffffffffffff1681565b6000805b600980549050811015612236578273ffffffffffffffffffffffffffffffffffffffff16600982815481106121d3576121d2612d35565b5b9060005260206000200160009054906101000a900473ffffffffffffffffffffffffffffffffffffffff1673ffffffffffffffffffffffffffffffffffffffff160361222357600191505061223c565b808061222e90612d64565b91505061219b565b50600090505b919050565b6000819050919050565b61225481612241565b82525050565b600060208201905061226f600083018461224b565b92915050565b600080fd5b60008115159050919050565b61228f8161227a565b811461229a57600080fd5b50565b6000813590506122ac81612286565b92915050565b6000602082840312156122c8576122c7612275565b5b60006122d68482850161229d565b91505092915050565b6122e88161227a565b82525050565b600060208201905061230360008301846122df565b92915050565b61231281612241565b811461231d57600080fd5b50565b60008135905061232f81612309565b92915050565b6003811061234257600080fd5b50565b60008135905061235481612335565b92915050565b6000806040838503121561237157612370612275565b5b600061237f85828601612320565b925050602061239085828601612345565b9150509250929050565b600081519050919050565b600082825260208201905092915050565b6000819050602082019050919050565b600073ffffffffffffffffffffffffffffffffffffffff82169050919050565b60006123f1826123c6565b9050919050565b612401816123e6565b82525050565b600061241383836123f8565b60208301905092915050565b6000602082019050919050565b60006124378261239a565b61244181856123a5565b935061244c836123b6565b8060005b8381101561247d5781516124648882612407565b975061246f8361241f565b925050600181019050612450565b5085935050505092915050565b600060208201905081810360008301526124a4818461242c565b905092915050565b6000602082840312156124c2576124c1612275565b5b60006124d084828501612320565b91505092915050565b6124e2816123e6565b82525050565b60006020820190506124fd60008301846124d9565b92915050565b61250c816123e6565b811461251757600080fd5b50565b60008135905061252981612503565b92915050565b60006020828403121561254557612544612275565b5b60006125538482850161251a565b91505092915050565b600060ff82169050919050565b6125728161255c565b82525050565b600060c08201905061258d600083018961224b565b61259a602083018861224b565b6125a7604083018761224b565b6125b46060830186612569565b6125c1608083018561224b565b6125ce60a08301846122df565b979650505050505050565b600080604083850312156125f0576125ef612275565b5b60006125fe85828601612345565b925050602061260f8582860161251a565b9150509250929050565b7f4e487b7100000000000000000000000000000000000000000000000000000000600052602160045260246000fd5b6003811061265957612658612619565b5b50565b600081905061266a82612648565b919050565b600061267a8261265c565b9050919050565b61268a8161266f565b82525050565b600060e0820190506126a5600083018a61224b565b6126b2602083018961224b565b6126bf604083018861224b565b6126cc606083018761224b565b6126d96080830186612681565b6126e660a083018561224b565b6126f360c08301846122df565b98975050505050505050565b60006020828403121561271557612714612275565b5b600061272384828501612345565b91505092915050565b600082825260208201905092915050565b7f6e6f742064657600000000000000000000000000000000000000000000000000600082015250565b600061277360078361272c565b915061277e8261273d565b602082019050919050565b600060208201905081810360008301526127a281612766565b9050919050565b7f6e6f206465706f73697400000000000000000000000000000000000000000000600082015250565b60006127df600a8361272c565b91506127ea826127a9565b602082019050919050565b6000602082019050818103600083015261280e816127d2565b9050919050565b7f4e487b7100000000000000000000000000000000000000000000000000000000600052601160045260246000fd5b600061284f82612241565b915061285a83612241565b925082820390508181111561287257612871612815565b5b92915050565b600061288382612241565b915061288e83612241565b92508282019050808211156128a6576128a5612815565b5b92915050565b60006040820190506128c160008301856124d9565b6128ce602083018461224b565b9392505050565b6000815190506128e481612286565b92915050565b600060208284031215612900576128ff612275565b5b600061290e848285016128d5565b91505092915050565b600060408201905061292c600083018561224b565b612939602083018461224b565b9392505050565b7f6e6f207969656c64000000000000000000000000000000000000000000000000600082015250565b600061297660088361272c565b915061298182612940565b602082019050919050565b600060208201905081810360008301526129a581612969565b9050919050565b7f7061757365640000000000000000000000000000000000000000000000000000600082015250565b60006129e260068361272c565b91506129ed826129ac565b602082019050919050565b60006020820190508181036000830152612a11816129d5565b9050919050565b7f62656c6f77206d696e696d756d00000000000000000000000000000000000000600082015250565b6000612a4e600d8361272c565b9150612a5982612a18565b602082019050919050565b60006020820190508181036000830152612a7d81612a41565b9050919050565b6000606082019050612a9960008301866124d9565b612aa660208301856124d9565b612ab3604083018461224b565b949350505050565b6000612ac682612241565b9150612ad183612241565b9250828202612adf81612241565b91508282048414831517612af657612af5612815565b5b5092915050565b7f4e487b7100000000000000000000000000000000000000000000000000000000600052601260045260246000fd5b6000612b3782612241565b9150612b4283612241565b925082612b5257612b51612afd565b5b828204905092915050565b6000604082019050612b72600083018561224b565b612b7f6020830184612681565b9392505050565b7f6e6f74206167656e740000000000000000000000000000000000000000000000600082015250565b6000612bbc60098361272c565b9150612bc782612b86565b602082019050919050565b60006020820190508181036000830152612beb81612baf565b9050919050565b7f706f6f6c206e6f7420617070726f766564000000000000000000000000000000600082015250565b6000612c2860118361272c565b9150612c3382612bf2565b602082019050919050565b60006020820190508181036000830152612c5781612c1b565b9050919050565b600081519050612c6d81612309565b92915050565b600060208284031215612c8957612c88612275565b5b6000612c9784828501612c5e565b91505092915050565b6000604082019050612cb56000830185612681565b612cc260208301846124d9565b9392505050565b7f6e6f206465706f73697473000000000000000000000000000000000000000000600082015250565b6000612cff600b8361272c565b9150612d0a82612cc9565b602082019050919050565b60006020820190508181036000830152612d2e81612cf2565b9050919050565b7f4e487b7100000000000000000000000000000000000000000000000000000000600052603260045260246000fd5b6000612d6f82612241565b91507fffffffffffffffffffffffffffffffffffffffffffffffffffffffffffffffff8203612da157612da0612815565b5b600182019050919050565b6000606082019050612dc1600083018661224b565b612dce602083018561224b565b612ddb604083018461224b565b94935050505056fea264697066735822122017b94443b57b76d25171162045c0e2831743aef2d1bb725714b803209e73906764736f6c63430008140033",
  "linkReferences": {},
  "deployedLinkReferences": {}
}